S0100000546573745F4173702E73726563F1
S113000071C000008FC000008DC000008BC00000D4
S113001089C000000C9480090C94C20883C00000BD
S113002081C000007FC000007DC000007BC00000D4
S113003079C0000077C0000075C000000C941F094F
S113004071C000006FC000006DC000006BC00000F4
S113005069C0000067C0000065C000000C94DB09A3
S113006061C000009BC300005DC000005BC00000D5
S113007059C0000057C0000055C0000053C0000024
S113008051C000004FC000004DC000004BC0000034
S113009049C0000047C0000045C0000043C0000044
S11300A041C000003FC000003DC000003BC0000054
S11300B039C0000037C0000035C0000033C0000064
S11300C031C000002FC000002DC0000027C6000072
S11300D029C0000027C000009FC4000023C0000006
S11300E021C0000011241FBECFEFD1E2DEBFCDBF7F
S11300F000E00CBF16E0A0E0B2E0E6E3FEE100E0C1
S11301000BBF02C007900D92AE31B107D9F726E0BC
S1130110AEE1B6E001C01D92AF36B207E1F739D7C0
S11301200C94190F6DCF80E480937C0083E8809356
S11301307A000895CF93DF931F921F92CDB7DEB755
S113014080E480937C00EAE7F0E080818061808332
S113015080818064808380917A0084FFFCCF8091C9
S11301607800909179009A83898369817A81072E36
S1130170000C880B990B0E947F0D0F900F90DF915C
S1130180CF9108951FD79AD4F2D5DED70E94620981
S113019044D770D780D4C7DF78948DB1877F8DB969
S11301A0DFD70E946E0984B18F7E84B982E092E029
S11301B077D789EF93E074D72FE78AE196E021504F
S11301C080409040E1F700C0000089E092E068D7E9
S11301D089EF93E065D72FE78AE196E021508040CC
S11301E09040E1F700C000000895639969C4089540
S11301F0CF92DF92EF92FF92CF93DF93CDB7DEB72A
S11302002A970FB6F894DEBF0FBECDBF93DF20E070
S113021030E040EA50E40E940F0E20E030EC4FE75B
S113022054E40E94E40C20E030E048EC52E40E94E4
S11302300F0E6B017C010E944C0DDC01CB014AE0E6
S1130240BE016F5F7F4F0E94DE0E80E192E028D7EF
S1130250CE01019625D783E192E022D788EF93E07F
S11302601FD7C3DF20E030E040E752E4C701B60106
S11302700E940B0E1816E4F4B8DF89E6B2D62FED0F
S113028082E292E0215080409040E1F700C00000FB
S113029087E192E005D780E3809301022FEB87E2A8
S11302A099E0215080409040E1F700C00000A0DFB9
S11302B085E292E0F5D62FEB87E299E02150804069
S11302C09040E1F700C0000081E3809301022A9688
S11302D00FB6F894DEBF0FBECDBFDF91CF91FF9074
S11302E0EF90DF90CF900895CF93DF93CDB7DEB733
S11302F02A970FB6F894DEBF0FBECDBFEFD74AE002
S1130300BE016F5F7F4F80916B0690916C060E94D7
S1130310DE0E82E392E0C4D6CE010196C1D685E317
S113032092E0BED688EF93E0BBD683ED90E30197CD
S1130330F1F700C0000059DF80916B0690916C06C4
S11303409C012C5431092C32310538F48CE092E0B4
S1130350A7D68CE092E0A4D651C08C349105B4F5B4
S113036089E63FD69FE926E881E09150204080400D
S1130370E1F700C0000084EB95E092D69FE32DE006
S113038083E0915020408040E1F700C0000084EBFE
S113039095E086D69FED23E984E09150204080408B
S11303A0E1F700C0000082E392E07AD6CE01019624
S11303B077D68BE392E074D69FE121EA87E09150EF
S11303C020408040E1F700C0000018C081E292E0C4
S11303D067D69FE926E881E0915020408040E1F70C
S11303E000C0000081E292E05BD69FE926E881E04C
S11303F0915020408040E1F700C000002A960FB6DB
S1130400F894DEBF0FBECDBFDF91CF91089503995D
S11304104AC0EBDE82E492E043D689E6E2D580E38B
S1130420809301022FE38DE093E0215080409040BF
S1130430E1F700C0000082E492E032D62FE78AE1BF
S113044096E0215080409040E1F700C000008AE42B
S113045092E026D62FE38DE093E021508040904037
S1130460E1F700C00000B9D301C0BFDE039BFDCF9C
S113047089E092E015D62FE181EA97E0215080408F
S11304809040E1F700C0000085E292E009D62FE138
S113049081EA97E0215080409040E1F700C00000DD
S11304A081E3809301020895CF93DF93CDB7DEB744
S11304B02A970FB6F894DEBF0FBECDBF51D64AE0DF
S11304C0BE016F5F7F4F80916706909168060E941E
S11304D0DE0E8FE592E0E4D5CE010196E1D585E309
S11304E092E0DED588EF93E0DBD583ED90E30197CE
S11304F0F1F700C0000079DE8091670690916806EC
S11305009C01275431092133310538F48CE092E001
S1130510C7D58CE092E0C4D53FC087349105B4F5CB
S113052089E65FD59FE926E881E09150204080402C
S1130530E1F700C0000082E692E0B2D59FE32DE02F
S113054083E0915020408040E1F700C0000082E643
S113055092E0A6D59FE32DE083E0915020408040B7
S1130560E1F700C000008FE592E09AD5CE01019634
S113057097D58BE392E094D59FED23E984E09150E5
S113058020408040E1F700C0000006C081E292E014
S113059087D581E292E084D52A960FB6F894DEBF1F
S11305A00FBECDBFDF91CF91089502993FC089E678
S11305B018D52FE986E891E0215080409040E1F77A
S11305C000C0000087E692E06BD52FE38DE093E056
S11305D0215080409040E1F700C000008FE692E097
S11305E05FD580E38093010200DEF7D201C0FDDD18
S11305F0029BFDCF82E092E053D52FE38DE093E0A0
S1130600215080409040E1F700C0000082E892E071
S113061047D5EBDD2FE38DE093E0215080409040FF
S1130620E1F700C0000081E38093010208951C9B60
S11306302FC089E6D6D42FE986E891E02150804086
S11306409040E1F700C000008EE892E029D52FEB3E
S113065087E299E0215080409040E1F700C000001B
S113066080E380930102B9D201C0BFDD1C99FDCFA4
S113067082E892E015D52FEB87E299E02150804083
S11306809040E1F700C0000081E380930102ADCD0A
S11306900895CF93DF93CDB7DEB72A970FB6F894BA
S11306A0DEBF0FBECDBF8BE396E00E94B80E9C0167
S11306B0215031092B32314020F49093210680934C
S11306C020064AE0BE016F5F7F4F80912006909123
S11306D021060E94DE0E81EA92E0E2D4CE01019668
S11306E0DFD489EF93E0DCD42A960FB6F894DEBF0A
S11306F00FBECDBFDF91CF910895CF9381E3809357
S1130700010280910002813311F4CEDE03C08233F2
S113071009F4EADD8FE295E70197F1F700C00000E4
S113072067DD8FE295E70197F1F700C00000B1DFC4
S113073087EA91E60197F1F700C0000036DF67DE33
S113074076DF80910002813311F4AEDE03C0823380
S113075009F4CADD8FE295E70197F1F700C00000C4
S1130760C0E002C007D3CF5FC837E0F3A5D38FE260
S113077095E70197F1F700C00000809100028133F2
S113078011F492DE03C0823309F4AEDD8FE295E703
S11307900197F1F700C00000CF9108951F920F92C6
S11307A00FB60F9211240BB60F922F933F934F93D2
S11307B05F936F937F938F939F93AF93BF93EF93C5
S11307C0FF938091C6008A3021F08D3011F083327E
S11307D061F4E0911E06F0911F06E55CF94F10826A
S11307E010921F0610921E060FC020911E06309113
S11307F01F06A9014F5F5F4F50931F0640931E06CB
S1130800F901E55CF94F808364EA72E08BE396E0DA
S11308100E94D50E892BA9F480910102813389F4B9
S113082089E6DFD32FED83E994E0215080409040A6
S1130830E1F700C000008AE7D4D381E3809300028B
S1130840D8C066EA72E08BE396E00E94D50E892B4D
S113085039F480910102813319F488E6C2D3C9C006
S113086068EA72E08BE396E00E94D50E892B39F496
S113087080910102813319F487E6B3D3BAC063ECE3
S113088074E08BE396E00E94D50E892BA9F4809145
S11308900102813389F489E6A4D32FED83E994E03E
S11308A0215080409040E1F700C0000086E699D3D3
S11308B082E3809300029DC06AEA72E08BE396E0D3
S11308C00E94D50E892B19F489E68BD392C06DE969
S11308D075E08BE396E00E94D50E892BA9F48091F4
S11308E00102813389F489E67CD32FEF80E792E01B
S11308F0215080409040E1F700C0000088E771D3A8
S113090081E38093000275C06CEA72E08BE396E0A9
S11309100E94D50E892B99F480910102813379F4D8
S11309202FE38DE093E0215080409040E1F700C038
S1130930000089E756D381E3809300025AC066E43D
S113094075E08BE396E00E94D50E892BA9F4809183
S11309500102813389F489E644D32FEF80E792E0E2
S1130960215080409040E1F700C0000084E639D374
S113097082E3809300023DC06DE675E08BE396E070
S11309800E94D50E892BA9F480910102813389F448
S113099089E627D32FE38DE093E0215080409040F7
S11309A0E1F700C0000085E61CD382E380930002D7
S11309B020C06EEA72E08BE396E00E94D50E892B8C
S11309C0C1F4A6D58823A9F08EE292E069D38EE221
S11309D092E066D38EE292E063D38EE292E060D33B
S11309E02FE78AE196E0215080409040E1F700C073
S11309F00000FF91EF91BF91AF919F918F917F91F3
S1130A006F915F914F913F912F910F900BBE0F907B
S1130A100FBE0F901F9018951F920F920FB60F9252
S1130A2011240BB60F922F933F934F935F938F93A1
S1130A30EF93FF93809136018A3021F08D3011F0CD
S1130A40833261F4E0911E06F0911F06EF5CF94FCA
S1130A50108210921F0610921E060FC020911E06CF
S1130A6030911F06A9014F5F5F4F50931F064093BB
S1130A701E06F901EF5CF94F8083FF91EF918F918E
S1130A805F914F913F912F910F900BBE0F900FBE2E
S1130A900F901F90189581B1816081B981B18061F7
S1130AA081B981B1826081B981B1806281B984B137
S1130AB0806284B98DB188608DB90895CCC20895DF
S1130AC01C9B04C081E08093240603C01C9B1092ED
S1130AD02406029904C081E08093230603C002998E
S1130AE010922306039904C081E08093220603C078
S1130AF003991092220680EB92E0F2D22FE38DE06C
S1130B0093E0215080409040E1F700C0000085EB65
S1130B1092E0E6D22FE38DE093E0215080409040B4
S1130B20E1F700C0000080EC92E0DAD22FE38DE020
S1130B3093E0215080409040E1F700C000008CEC2D
S1130B4092E0CED22FE38DE093E02150804090409C
S1130B50E1F700C0000086EE92E0C2D28091230645
S1130B60882321F08DE193E0BBD203C08EE293E0B1
S1130B70B7D280912206882321F083E493E0B0D297
S1130B8003C086E593E0ACD280912406882321F04B
S1130B908DE693E0A5D203C08EE793E0A1D283E96A
S1130BA093E09ED2C1D12FE38DE093E021508040A9
S1130BB09040E1F700C000008091D00085FFFCCF99
S1130BC08AE18093D6002FE784E89EE1215080409B
S1130BD09040E1F700C0000008951C9B04C081E030
S1130BE08093240603C01C9B10922406029904C01F
S1130BF081E08093230603C002991092230603998F
S1130C0004C081E08093220603C003991092220657
S1130C1080EB92E065D22FE38DE093E02150804099
S1130C209040E1F700C0000085EB92E059D22FE339
S1130C308DE093E0215080409040E1F700C0000037
S1130C4080EC92E04DD22FE38DE093E02150804080
S1130C509040E1F700C000008CEC92E041D22FE319
S1130C608DE093E0215080409040E1F700C0000007
S1130C7080912406882321F087EA93E031D20FC0C3
S1130C8080912306882321F08CEF93E029D207C0BA
S1130C9080912206882319F082E494E021D2809185
S1130CA02306882321F08DE193E01AD203C08EE25B
S1130CB093E016D280912206882321F083E493E006
S1130CC00FD203C086E593E00BD2809124068823DB
S1130CD021F08DE693E004D203C08EE793E000D2C6
S1130CE083E993E0FDD120D12FE38DE093E02150FF
S1130CF080409040E1F700C000008091D00085FF63
S1130D00FCCF8AE18093D6002FE784E89EE121504E
S1130D1080409040E1F700C0000008951F920F92B8
S1130D200FB60F9211240BB60F922F933F934F934C
S1130D305F936F937F938F939F93AF93BF93EF933F
S1130D40FF938091D600A5D1FF91EF91BF91AF9110
S1130D509F918F917F916F915F914F913F912F91CF
S1130D600F900BBE0F900FBE0F901F90189564D17B
S1130D7054C10895CF93DF93A5D18093660684323E
S1130D8009F097C09FD180936606873409F091C01B
S1130D9099D180936606803509F08BC093D18093F6
S1130DA06606873409F085C08DD180936606873442
S1130DB009F07FC087D180936606813409F079C039
S1130DC081D1809366068C3209F073C07BD1809305
S1130DD0660603C077D180936606809166068C32DE
S1130DE0C9F770D1809357068093660681E080939B
S1130DF0470613C0C0914706D0E064D1C95AD94F01
S1130E00888380914706E82FF0E0E95AF94F9081F2
S1130E10909366068F5F80934706809166068C32B6
S1130E2049F7E0914706F0E0EA5AF94F80E28083FF
S1130E3049D18093460646D18093660603C042D1C9
S1130E4080936606809166068C32C9F73BD1809305
S1130E5048068093660681E08093470613C0C091DC
S1130E604706D0E02FD1C85BD94F888380914706CD
S1130E70E82FF0E0E85BF94F9081909366068F5F6E
S1130E8080934706809166068C3249F7E0914706C5
S1130E90F0E0E95BF94F80E2808314D1809345064A
S1130EA02FEF80E792E0215080409040E1F700C0AE
S1130EB00000DF91CF910895CF93DF938AE894E007
S1130EC0EFD0C0E0D0E007C0E4D02196C230D10515
S1130ED011F48AE2DED0FE01E95AF94F80818111D2
S1130EE0F3CF80E6D6D080914606D3D085EA93E04E
S1130EF0D7D0C1E0D0E007C0CCD02196C330D10513
S1130F0011F48AE2C6D0FE01E85BF94F80818111B9
S1130F10F3CF80E6BED080914506BBD089EF93E045
S1130F20BFD0DF91CF910895CF93DF93C0E0D0E09D
S1130F3007C0CFD02196C230D10511F48AE2C9D0BE
S1130F40FE01E95AF94F80818111F3CF80E6C1D0C7
S1130F5080914606BED085EA93E0C2D0C1E0D0E0DD
S1130F6007C0B7D02196C330D10511F48AE2B1D0BD
S1130F70FE01E85BF94F80818111F3CF80E6A9D0AF
S1130F8080914506A6D085EA93E0AAD0DF91CF915F
S1130F900895F8D801D52FE78FE492E121508040DD
S1130FA09040E1F700C0000085EC94E0B2D02FEB54
S1130FB087E299E0215080409040E1F700C00000B2
S1130FC09CDBFECF84B1816084B984B1826084B932
S1130FD084B1877F84B984B1846084B980E58CBD91
S1130FE008958EBD0DB407FEFDCF089514BC81E0B5
S1130FF085BD16BCEEE6F0E08081816080830895B3
S11310001092B00081E08093B1001092B200E0E74A
S1131010F0E08081816080830895E0ECF0E08081DD
S11310208260808388E98093C10086E08093C20057
S113103083E38093C4000895E8ECF0E0808182604B
S1131040808388E18093C90086E08093CA0087E6A4
S11310508093CC000895E0EDF0E08081826080838D
S113106088E98093D10086E08093D20087E680935C
S1131070D4000895E0E3F1E080818260808388E910
S11310808093310186E08093320187E680933401B6
S113109008959091C00095FFFCCF8093C6000895F9
S11310A00F931F93CF938C01C0E002C0F2DFCF5F98
S11310B0F801EC0FF11D80818111F8CFCF911F91C0
S11310C00F9108958091C8008823E4F78091CE00A1
S11310D008959091D00095FFFCCF8093D600089599
S11310E00F931F93CF938C01C0E002C0F2DFCF5F58
S11310F0F801EC0FF11D80818111F8CFCF911F9180
S11311000F9108959091300195FFFCCF80933601A3
S113111008950F931F93CF938C01C0E002C0F2DFB8
S1131120CF5FF801EC0FF11D80818111F8CFCF91D1
S11311301F910F910895EAE6F0E080818160808339
S11311408DB380618DBB089587B1886087B98DB1F7
S11311508F7D8DB98EB180628EB9EDDF51CF089548
S113116080912A0681110DC088B1886088B985E311
S11311708A95F1F7000088B1877F88B981E0809370
S11311802A0608951F920F920FB60F9211240BB6E0
S11311900F922F933F934F935F936F937F938F930C
S11311A09F93AF93BF93EF93FF9380912A0681306F
S11311B099F58091290681110EC01092B20081E048
S11311C0809329061092250610922606109227066F
S11311D01092280621C08091250690912606A091A0
S11311E02706B0912806BA2FA92F982F8827209177
S11311F0B200BC01CD01620F711D811D911D22ED54
S113120031E040E050E092D52093670630936806C1
S11312104093690650936A06FF91EF91BF91AF9195
S11312209F918F917F916F915F914F913F912F91FA
S11312300F900BBE0F900FBE0F901F9018951F922A
S11312400F920FB60F9211242F938F939F93AF9306
S1131250BF938091250690912606A0912706B09110
S113126028060196A11DB11D80932506909326069C
S1131270A0932706B09328068B3D9240A105B105A3
S113128070F01092B20010922A0610922906109261
S11312902506109226061092270610922806BF9162
S11312A0AF919F918F912F910F900FBE0F901F9030
S11312B01895EAE6F0E08081846080838DB38062D3
S11312C08DBB089587B1846087B98DB18F7E8DB948
S11312D08EB180618EB9EDDF89CE0895809130069C
S11312E081110DC088B1846088B985E38A95F1F7CE
S11312F0000088B18B7F88B981E08093300608951F
S11313001F920F920FB60F9211240BB60F922F93C8
S11313103F934F935F936F937F938F939F93AF9379
S1131320BF93EF93FF9380913006813089F58091CC
S11313302F0681110DC016BC81E080932F061092F8
S11313402B0610922C0610922D0610922E0620C009
S113135080912B0690912C06A0912D06B0912E061B
S1131360BA2FA92F982F882726B5BC01CD01620F6B
S1131370711D811D911D22ED31E040E050E0D6D475
S113138020936B0630936C0640936D0650936E0663
S1131390FF91EF91BF91AF919F918F917F916F9149
S11313A05F914F913F912F910F900BBE0F900FBE05
S11313B00F901F9018951F920F920FB60F92112441
S11313C02F938F939F93AF93BF9380912B0690910C
S11313D02C06A0912D06B0912E060196A11DB11DDB
S11313E080932B0690932C06A0932D06B0932E0683
S11313F08B3D9240A105B10568F016BC10923006F1
S113140010922F0610922B0610922C0610922D0685
S113141010922E06BF91AF919F918F912F910F90B3
S11314200FBE0F901F9018950F931F93CF93DF93C8
S113143084ED94E035DE2FEB87E299E02150804083
S11314409040E1F700C000008AEE94E062DE00E024
S113145010E034C02FEB87E299E0215080409040A7
S1131460E1F700C000008AEE94E053DEC0E0D0E073
S11314701FC065EF74E081E396E097D4892BB9F43B
S11314808EE292E00DDE8EE292E00ADE8EE292E0DF
S113149007DE8EE292E004DE2FE181EA97E021503C
S11314A080409040E1F700C0000081E02CC021960C
S11314B0C0362AEED207E8F20F5F1F4F083211053B
S11314C04CF28FEB97E229E0815090402040E1F705
S11314D000C000008FEF94E0E3DD8FEB96EC2DE28B
S11314E0815090402040E1F700C000008CE195E07D
S11314F0D7DD8FE794E82EE1815090402040E1F75A
S113150000C0000080E0DF91CF911F910F910895FA
S11315100F931F93CF93DF938AEE94E0FADD00E0FC
S113152010E031C065EF74E081E396E03ED4892B8E
S113153001F58EE292E0B4DD8EE292E0B1DD2FE3BC
S11315408DE093E0215080409040E1F700C000001E
S11315508EE292E0A5DD8EE292E0A2DD2FE38DE043
S113156093E0215080409040E1F700C0000081E00A
S11315700EC0219602C0C0E0D0E0C0362AEED207E9
S113158088F20F5F1F4F03301105ACF380E0DF9149
S1131590CF911F910F9108950F931F93CF93DF93D2
S11315A02FE78FE492E1215080409040E1F700C0A2
S11315B0000086E395E0ADDD00E010E0ECC062E4FD
S11315C075E081E396E0F1D3892B31F588E495E069
S11315D067DD2FE382E49FE0215080409040E1F7F3
S11315E000C000008AE595E05BDD2FE382E49FE024
S11315F0215080409040E1F700C0000084E695E06F
S113160088DD2FEF84E39CE0215080409040E1F797
S113161000C0000081E0E7C06FE675E081E396E07A
S1131620C4D3892B31F588E495E03ADD2FE382E4D5
S11316309FE0215080409040E1F700C0000084E723
S113164095E02EDD2FE382E49FE02150804090401E
S1131650E1F700C000008DE795E05BDD2FEF84E348
S11316609CE0215080409040E1F700C0000081E000
S1131670BAC06AE875E081E396E097D3892B31F527
S113168088E495E00DDD2FE382E49FE02150804063
S11316909040E1F700C0000080E995E001DD2FE310
S11316A082E49FE0215080409040E1F700C00000B8
S11316B08DE795E02EDD2FEF84E39CE02150804000
S11316C09040E1F700C0000081E08DC06AE975E058
S11316D081E396E06AD3892B31F588E495E0E0DC78
S11316E02FE382E49FE0215080409040E1F700C066
S11316F000008FE995E0D4DC2FE382E49FE02150E1
S113170080409040E1F700C000008DE795E001DDE6
S11317102FEF84E39CE0215080409040E1F700C02B
S1131720000081E060C068EA75E081E396E03DD3A3
S1131730892B31F588E495E0B3DC2FE382E49FE064
S1131740215080409040E1F700C000008EEA95E00F
S1131750A7DC2FE382E49FE0215080409040E1F732
S113176000C000008DE795E0D4DC2FEF84E39CE01B
S1131770215080409040E1F700C0000081E033C078
S1131780219602C0C0E0D0E0C03523ECD20708F4B3
S113179016CF0F5F1F4F02331105A4F388EB95E0BA
S11317A07FDC8FE794E82EE1815090402040E1F700
S11317B000C0000080ED95E073DC8FE794E82EE133
S11317C0815090402040E1F700C0000088EE95E091
S11317D0A0DC8FE79FE422E1815090402040E1F7B4
S11317E000C0000080E0DF91CF911F910F91089518
S11317F00F931F93CF93DF9300E010E0ABC065EF2E
S113180075E08BE396E0D1D2892BC9F488E495E0A6
S113181047DC2FEF84E39CE0215080409040E1F7C7
S113182000C000008AE595E03BDC2FEF84E39CE0F8
S1131830215080409040E1F700C00000A7C06AEF4B
S113184075E08BE396E0B1D2892BC9F488E495E086
S113185027DC2FEF84E39CE0215080409040E1F7A7
S113186000C0000084E795E01BDC2FEF84E39CE0DC
S1131870215080409040E1F700C0000087C06FEF26
S113188075E08BE396E091D2892BC9F488E495E066
S113189007DC2FEF84E39CE0215080409040E1F787
S11318A000C0000080E995E0FBDB2FEF84E39CE0BF
S11318B0215080409040E1F700C0000067C064E020
S11318C076E08BE396E071D2892BC9F488E495E045
S11318D0E7DB2FEF84E39CE0215080409040E1F768
S11318E000C000008FE995E0DBDB2FEF84E39CE090
S11318F0215080409040E1F700C0000047C069E0FB
S113190076E08BE396E051D2892BC9F488E495E024
S1131910C7DB2FEF84E39CE0215080409040E1F747
S113192000C000008EEA95E0BBDB2FEF84E39CE06F
S1131930215080409040E1F700C0000027C021966C
S113194002C0C0E0D0E0C03523ECD20708F457CF82
S11319500F5F1F4F04311105A4F388EB95E0A0DB62
S11319608FE794E82EE1815090402040E1F700C0D9
S113197000008EE096E094DB8FE79AE126E0815048
S113198090402040E1F700C00000FFCF81E0DF91EC
S1131990CF911F910F91089547DD813089F48EE234
S11319A092E07EDB2FED83E994E02150804090406B
S11319B0E1F700C00000F0DD811105C019CF0895E2
S11319C0811101C015CF08950CD0EBC0E3D040F0D5
S11319D0DAD030F021F45F3F19F0CCC0511115C1B9
S11319E0CFC0F0D098F39923C9F35523B1F3951BD5
S11319F0550BBB27AA2762177307840738F09F5F2C
S1131A005F4F220F331F441FAA1FA9F333D00E2E9A
S1131A103AF0E0E830D091505040E695001CCAF707
S1131A2029D0FE2F27D0660F771F881FBB1F2617CC
S1131A3037074807AB07B0E809F0BB0B802DBF019F
S1131A40FF2793585F4F2AF09E3F510568F092C0DC
S1131A50DCC05F3FECF3983EDCF3869577956795A1
S1131A60B795F7959F5FC9F7880F911D9695879550
S1131A7097F90895E1E0660F771F881FBB1F62176F
S1131A8073078407BA0720F0621B730B840BBA0B2D
S1131A90EE1F88F7E095089504D06894B111B5C09D
S1131AA0089598D088F09F5790F0B92F9927B7518F
S1131AB0A0F0D1F0660F771F881F991F1AF0BA950E
S1131AC0C9F712C0B13081F09FD0B1E008959CC035
S1131AD0672F782F8827B85F39F0B93FCCF3869504
S1131AE077956795B395D9F73EF490958095709561
S1131AF061957F4F8F4F9F4F0895E89409C097FBDE
S1131B003EF490958095709561957F4F8F4F9F4FD0
S1131B109923A9F0F92F96E9BB279395F695879514
S1131B2077956795B795F111F8CFFAF4BB0F11F4D7
S1131B3060FF1BC06F5F7F4F8F4F9F4F16C088237E
S1131B4011F096E911C0772321F09EE8872F762FB4
S1131B5005C0662371F096E8862F70E060E02AF0F5
S1131B609A95660F771F881FDAF7880F96958795E1
S1131B7097F9089597F99F6780E870E060E0089509
S1131B809FEF80EC089500240A9416161706180691
S1131B900906089500240A9412161306140605066D
S1131BA00895092E0394000C11F4882352F0BB0FFE
S1131BB040F4BF2B11F460FF04C06F5F7F4F8F4F61
S1131BC09F4F089557FD9058440F551F59F05F3F9C
S1131BD071F04795880F97FB991F61F09F3F79F04B
S1131BE087950895121613061406551FF2CF4695CD
S1131BF0F1DF08C0161617061806991FF1CF86954F
S1131C007105610508940895E894BB276627772732
S1131C10CB0197F9089566D008F48FEF08950BD09F
S1131C20C0CFB1DF28F0B6DF18F0952309F0A2CFBA
S1131C30A7CF1124EACFC6DFA0F3959FD1F3950F68
S1131C4050E0551F629FF001729FBB27F00DB11D3C
S1131C50639FAA27F00DB11DAA1F649F6627B00DCC
S1131C60A11D661F829F2227B00DA11D621F739FB5
S1131C70B00DA11D621F839FA00D611D221F749FC3
S1131C803327A00D611D231F849F600D211D822F0A
S1131C90762F6A2F11249F5750408AF0E1F0882351
S1131CA04AF0EE0FFF1FBB1F661F771F881F91505E
S1131CB05040A9F79E3F510570F05CCFA6CF5F3F1F
S1131CC0ECF3983EDCF3869577956795B795F79591
S1131CD0E7959F5FC1F7FE2B880F911D9695879519
S1131CE097F90895990F0008550FAA0BE0E8FEEF45
S1131CF016161706E807F907C0F012161306E407CC
S1131D00F50798F0621B730B840B950B39F40A26C4
S1131D1061F0232B242B252B21F408950A2609F4A2
S1131D20A140A6958FEF811D811D0895A1E21A2E71
S1131D30AA1BBB1BFD010DC0AA1FBB1FEE1FFF1F6B
S1131D40A217B307E407F50720F0A21BB30BE40BBB
S1131D50F50B661F771F881F991F1A9469F7609502
S1131D607095809590959B01AC01BD01CF010895BC
S1131D70FC0188279927E89421912032E9F329303E
S1131D8010F02E30C8F32B3239F02D3231F4689430
S1131D9003C01ED0820F911D219120532A30C8F315
S1131DA01EF4909581959F4F0895FB01DC018D9160
S1131DB0019080190110D9F3990B0895BB274A307B
S1131DC031F4992322F4BDE2909581959F4F09C087
S1131DD07AE0979F902D879F802D910D112408956F
S1131DE0BB27FB015527AA27880F991FAA1FA417F1
S1131DF010F0A41B83955051B9F7A05DAA3308F0E5
S1131E00A95DA193009779F7B111B1931192CB0118
S1131E1000C0DC01FC01672F71917723E1F7329751
S1131E2004C07C916D9370836291AE17BF07C8F3B1
S1091E300895F894FFCFB1
S1131E363030792C6E6F0A0D00782C6E6F0A0D0007
S1131E467A2C0020630A00742C486967682054655C
S1131E566D700A0D00742C4E6F204572726F720AF3
S1131E660D00752C0020436D2E0A0020436D2E0AAA
S1131E760D00782C5965730A0D00742C416C636F40
S1131E86686F6C2044657465637465640A0D007636
S1131E962C006E2C0A0D00792C7965730A0D0074DA
S1131EA62C536D6F6B652044657465637465640AB1
S1131EB60D00742C4E6F204572726F720D00742CD7
S1131EC65573657220697320536C656570790A0DC4
S1131ED600732C00630068006700690062007200EA
S1131EE641540A0D0041542B435245473F0A0D0005
S1131EF641542B434D47463D310A0D0041542B4373
S1131F064D47533D222B3230313031333938323359
S1131F163631220A0D004163636964656E74206F6D
S1131F266363757220746F206361722035373438A9
S1131F3620616E6420746861742069732069747307
S1131F4620636F6E646974696F6E0A0D00736D6F3A
S1131F566B652064657465637465640A0D00736D4E
S1131F666F6B65206E6F7420646574656374656455
S1131F760A0D00616C636F686F6C20646574656339
S1131F867465640A0D00616C636F686F6C206E6F14
S1131F96742064657465637465640A0D0064726F05
S1131FA6776E2064657465637465640A0D006472F3
S1131FB66F776E206E6F74206465746563746564F0
S1131FC60A0D00436172204C6F636174696F6E2061
S1131FD66973203A200A00447269766572206F6636
S1131FE62063617220353734382066656C6C206155
S1131FF6736C656570207768696C652064726976B0
S1132006696E6720616E6420746861742069732048
S11320166F766572207468652063617220636F6EE3
S1132026646974696F6E203A200A0D00536D6F6BF4
S11320366520446574656374656420696E20636114
S113204672203537343820616E64207468617420D8
S1132056697320746865206F766572616C6C2063A1
S1132066617220636F6E646974696F6E203A200A28
S11320760D00416C636F686F6C204465746563740E
S1132086656420696E2063617220353734382061B7
S11320966E64207468617420697320746865206FA7
S11320A6766572616C6C2063617220636F6E64691D
S11320B674696F6E203A200A0D00772C00687474D8
S11320C670733A2F2F7777772E676F6F676C652E4D
S11320D6636F6D2F6D6170732F7365617263682F03
S11320E63F6170693D312671756572793D256C666F
S11320F62C256C660044726F777379205374617271
S1132106740A0D00742C52617370626572727920C0
S1132116636865636B20210A0D0048656C6C6F204B
S113212670690A0D0048656C6C6F20415652007444
S11321362C526173706265727279206E6F742044DA
S11321466574656374656420210A0D00742C456EFC
S113215674657220436F6465204D616E75616C6CA5
S11321667920210A0D004F70656E5F666163650A0A
S11321760D0041686D656400742C55736572207694
S1132186657269666965640A0D00712C41686D653E
S1132196640A0D00436C6F73655F66616365004195
S11321A66E617300712C416E61730A0D00436C6F8E
S11321B673655F666163650A0D0047616D616C0056
S11321C6712C47616D616C0A0D00546F6B6100716F
S11321D62C546F6B610A0D00526177616E00712C8D
S11321E6526177616E0A0D00742C46616365206E38
S11321F66F7420446574656374656420210A0D0058
S1132206456E74657220636F6465204D616E7561F9
S11322166C6C7920210A0D00436C6F73655F46610F
S113222663650A0D003637353200323837340031EB
S113223634333600343736330039363135004361AA
S11122467220426C6F636B656420210A0D00E8
S9030000FC
