:100000000C9441000C9400010C9453000C94530088
:100010000C9453000C9453000C9453000C94530014
:100020000C9453000C9453000C9453000C94530004
:100030000C94F1000C9453000C9453000C94530056
:100040000C9453000C9453000C9453000C945300E4
:100050000C945300DB00DE00E100E400E700EA005E
:10006000EC00EC00EC00EC00EC00EC00EC00EC0030
:10007000EC00EC00EC00EC00EC00EC00D200D50051
:10008000D80011241FBECFE5D8E0DEBFCDBF20E0F1
:10009000A0E6B0E001C01D92A136B207E1F70E94D0
:1000A00012010C9444010C9400000E9429010E944A
:1000B00026010E9417018AB381608ABB8AB38260DD
:1000C0008ABB87B3886087BB81B3806881BB8FB7E9
:1000D00080688FBF81B38B7F81BB8BB780648BBF00
:1000E00008958BB381608BBB8BB38D7F8BBB0E94DC
:1000F0002C010E94350108958BB381608BBB8BB3BB
:100100008D7F8BBB0E942F010E94380108958BB315
:1001100081608BBB8BB38D7F8BBB0E9432010E94B1
:100120003B0108958BB382608BBB8BB38E7F8BBBFF
:100130000E942C010E94350108958BB382608BBB15
:100140008BB38E7F8BBB0E942F010E9438010895D4
:100150008BB382608BBB8BB38E7F8BBB0E943201D3
:100160000E943B0108950E942F0113BC08951CBEFC
:100170000E943801089513BC1CBE8BB38E7F8BBBCD
:100180008BB38D7F8BBB0895E09160008E2F90E044
:10019000FC01E456F109E731F105F0F4E65DFF4FAB
:1001A0000C943E010E94710017C00E947C0014C094
:1001B0000E94870011C00E9492000EC00E949D0004
:1001C0000BC00E94A80008C00E94B30005C00E9496
:1001D000B70002C00E94BB00829902C0829BFECF82
:1001E00008951F920F920FB60F9211248F938FB123
:1001F000809360008F910F900FBE0F901F90189505
:100200001F920F920FB60F9211248F938BB38E7F94
:100210008BBB8BB38D7F8BBB8F910F900FBE0F90DD
:100220001F9018950E9455000E94C400FDCF87B30F
:100230008F7D87BB87B38F7E87BB87B3806487BB87
:1002400087B38F7787BB80EC8DB9089589E683BF2C
:10025000089589E685BD089584EB8CBF089583ECED
:100260008CBF089582ED8CBF089584EB83BD089503
:1002700083EC83BD089582ED83BD0895EE0FFF1FCB
:0C0280000590F491E02D0994F894FFCF54
:00000001FF
